:020000040800F2
:1000000000020020590400089D080008A10800080B
:1000100000000000000000000000000000000000E0
:10002000000000000000000000000000A50800081B
:100030000000000000000000A9080008AD0800084A
:10004000550400085504000855040008550400082C
:10005000550400085504000855040008550400081C
:10006000550400085504000855040008550400080C
:1000700055040008550400085504000855040008FC
:1000800055040008000000000000000055040008AE
:10009000000000005504000855040008550400083D
:1000A000000000005504000855040008550400082D
:1000B0000D08000800000000B508000855040008FD
:1000C000F0B5050083074AD0541E002A44D0CEB2B2
:1000D0000300032202E00135013C3DD301332E70C1
:1000E0001342F8D1032C2FD9FF220A4015021543E1
:1000F0002A0415430F2C35D92700103F3F093E0134
:10010000B4461E001A0010366644156055609560AE
:10011000D5601032B242F8D10F260C2201373F01D0
:100120002640DB193700224217D03E1FB608B40024
:10013000A4461A001C1D644420C2A242FCD1032420
:100140000136B6009B193C40002C05D0C9B21C19E1
:10015000197001339C42FBD1F0BD3400F4E7140068
:100160000300BFE72700E0E7002243088B4274D377
:1001700003098B425FD3030A8B4244D3030B8B42A8
:1001800028D3030C8B420DD3FF22090212BA030CB1
:100190008B4202D31212090265D0030B8B4219D392
:1001A00000E0090AC30B8B4201D3CB03C01A5241B2
:1001B000830B8B4201D38B03C01A5241430B8B42FA
:1001C00001D34B03C01A5241030B8B4201D30B03E3
:1001D000C01A5241C30A8B4201D3CB02C01A52410A
:1001E000830A8B4201D38B02C01A5241430A8B42CD
:1001F00001D34B02C01A5241030A8B4201D30B02B6
:10020000C01A5241CDD2C3098B4201D3CB01C01ACF
:10021000524183098B4201D38B01C01A52414309D9
:100220008B4201D34B01C01A524103098B4201D3C7
:100230000B01C01A5241C3088B4201D3CB00C01A34
:10024000524183088B4201D38B00C01A52414308AC
:100250008B4201D34B00C01A5241411A00D20146D1
:10026000524110467047FFE701B5002000F0F0F85A
:1002700002BDC0460029F7D076E7704703460B431E
:100280007FD4002243088B4274D303098B425FD38F
:10029000030A8B4244D3030B8B4228D3030C8B42BB
:1002A0000DD3FF22090212BA030C8B4202D31212A1
:1002B000090265D0030B8B4219D300E0090AC30B76
:1002C0008B4201D3CB03C01A5241830B8B4201D323
:1002D0008B03C01A5241430B8B4201D34B03C01A0C
:1002E0005241030B8B4201D30B03C01A5241C30A84
:1002F0008B4201D3CB02C01A5241830A8B4201D3F5
:100300008B02C01A5241430A8B4201D34B02C01ADE
:100310005241030A8B4201D30B02C01A5241CDD283
:10032000C3098B4201D3CB01C01A524183098B42CE
:1003300001D38B01C01A524143098B4201D34B01B7
:10034000C01A524103098B4201D30B01C01A52411A
:10035000C3088B4201D3CB00C01A524183088B42A1
:1003600001D38B00C01A524143088B4201D34B008A
:10037000C01A5241411A00D20146524110467047FC
:100380005DE0CA0F00D04942031000D34042534001
:1003900000229C4603098B422DD3030A8B4212D3C1
:1003A000FC22890112BA030A8B420CD389019211F3
:1003B0008B4208D3890192118B4204D389013AD030
:1003C000921100E08909C3098B4201D3CB01C01A05
:1003D000524183098B4201D38B01C01A5241430918
:1003E0008B4201D34B01C01A524103098B4201D306
:1003F0000B01C01A5241C3088B4201D3CB00C01A73
:10040000524183088B4201D38B00C01A5241D9D28A
:1004100043088B4201D34B00C01A5241411A00D20B
:100420000146634652415B10104601D34042002B07
:1004300000D54942704763465B1000D3404201B586
:10044000002000F005F802BD0029F8D016E770473B
:100450007047C046FEE7C0461049114B99420BD089
:100460000022043B5B1A9B0801330E489B00845812
:100470008C5004329A42FAD10B4A0C4B9A4209D062
:100480000021043B9B1A9B0801339B009B1802C26E
:100490009A42FCD172B600F09DF8FEE700020020FF
:1004A0000C020020E0230008100200208C02002033
:1004B0007047C0467047C04670B50D4B0D4D5B1B75
:1004C0009E10002B05DD002408CD01349847A6427C
:1004D000FADCFFF7EDFF084D084B5B1B9E10002B6D
:1004E00005DD002408CD01349847A642FADC70BD32
:1004F00000000000000000000000000000000000FC
:1005000070B5074B074D5B1B9C10002B05DD013CB4
:10051000A300EB589847002CF9D1FFF7CBFF70BD33
:100520000000000000000000074B10B51A00002179
:10053000083200F0DFFD002800D010BD8021034804
:10054000890101F04FFAF8E7100200200008004886
:1005500070B500F0F5FF0500054C06492434200075
:1005600000F0F0F8E9B2200000F0E2F870BDC046FB
:1005700010020020DC23000810B592B02C220021CC
:1005800007A8FFF79DFD1022002101A8FFF798FDA5
:1005900001230593069380235B020F93802302249B
:1005A0001B0305A80E94109301F0A8FA002801D0AF
:1005B00072B6FEE7072303900490012101A801937E
:1005C000029401F0C9FD002801D072B6FEE712B016
:1005D00010BDC046F0B5C64600B58EB000F040FA7A
:1005E000FFF7CAFF8020464BC0025969454C0143C2
:1005F00059615A692500024080200192019A596987
:10060000C0030143596180215A6989020240029264
:10061000029A5A6928350A435A615B6980220B4065
:100620000393039B384B5200A3620423E36200232D
:1006300023636363C0231B03A36380235B03E36320
:10064000324B280023644423E25200F0B1FA002820
:1006500001D072B6FEE7012309900A90049005903C
:1006600006900790089004A928000B930C9300F0C3
:1006700037FB002842D12423E25C002A01D1023258
:10068000E254082225002266DE26220000232835B7
:100690005032B600280013756365E365A3652665CF
:1006A00000F094FB1A49280000F0CEFD23000B2235
:1006B00068335A70174A5A275A80174BE3666823E3
:1006C0009846434625002665E7542835280000F063
:1006D000D5FC0028FAD023002200210070336832B4
:1006E0005031280000F038FC20000021243000F0B8
:1006F0001FF8FA20400000F0F3F9E2E772B6FEE7D7
:1007000000100240100200200064004000010001BF
:10071000028C00000C0D00000E0F101172B6FEE7E7
:1007200010B50248243000F065F810BD100200201A
:100730008020034AD3691842FCD089B211857047E2
:100740000044004010B50C78002C0AD08020054AE7
:100750000131D3691842FCD0A4B214850C78002C66
:10076000F6D110BD0044004080211D4A8902536922
:1007700010B50B4353619023A024DB051868204378
:1007800018601868503CA04318609868A034204353
:1007900098605868EC3C2043586088201C6A4001EF
:1007A0002043012418620F4B1868A0431860D069D9
:1007B0000143D16119680C4A11400C221960196873
:1007C00011430A4A1960DA6020221968114319603E
:1007D0001A6822431A608022054B52051A6010BD28
:1007E0000010024000440040FFEFFFEF040D000046
:1007F00000E100E0002310B504000370024B186014
:10080000FFF7B2FF200010BD84020020044BDA691C
:10081000920603D59A8C034B1B681A707047C0462A
:1008200000440040840200207047C0460C23164A52
:1008300070B551680B40082B0AD01448124B144A6B
:100840005B681B061B0FD35CD840124B186070BD51
:100850000F2150685368D26AC025800C08401140AF
:1008600080226D022B40841C01315202934201D040
:10087000AB4204D00548FFF777FC6043DEE706484B
:10088000FFF772FC6043D9E70010024000127A00C3
:10089000A423000800020020006CDC02FEE7C04632
:1008A000FEE7C0467047C0467047C04610B500F02E
:1008B000E7F810BD10B5024800F004FD10BDC046B9
:1008C0003802002001220C4B82B0996911439961D2
:1008D00099690A4080210092009ADA6949050A4321
:1008E000DA61DB69054A0B4010210193019B136813
:1008F0000B43136002B0704700100240000001403B
:1009000070B5040088B01422002103A8FFF7D8FBBB
:10091000224B22689A4201D008B070BD8020204B43
:100920008004D96902260143D961DA6903250240AE
:1009300080200092009A5969C002014359618021C8
:100940005A69890202400192019A5A6904240A43B1
:100950005A615B6913480B400293029B802303A9F1
:100960005B00039304960695079400F0CDFE802368
:1009700090205B010393002303A9C005059304960F
:100980000695079400F0C0FE002200211E2000F012
:10099000E9FD1E2000F010FEBEE7C04600640040E6
:1009A00000100240000400480C4B026810B59A4247
:1009B00000D010BD0A4A0B49D3690B480B40802177
:1009C000D361490000F082FF802190204901C005D9
:1009D00000F07CFF1E2000F0FBFDEAE70064004011
:1009E00000100240FFFFFFFD000400487047C046B2
:1009F0007047C0460121002210B5064B49421961DB
:100A00001A61D960DA6099629A62FFF7F1FF0020FB
:100A100010BDC0460010024070B50500FA200E4C13
:100A200080002178FFF7A0FB0C4B01001868FFF74E
:100A30009BFB00F0EBFD00280BD10130032D00D90A
:100A400070BD02380022290000F08CFD6560002096
:100A5000F6E70120F4E7C04604020020000200206F
:100A60001021064A10B5136800200B431360FFF7EE
:100A7000D3FFFFF727FF002010BDC0460020024033
:100A8000034A044B11681B785B1813607047C0461B
:100A90008802002004020020014B18687047C046FD
:100AA00088020020014B58687047C04604020020AD
:100AB00070B5074C0300257800209D4200D170BD21
:100AC00060682370FFF7A8FF0028F8D02570F6E7CC
:100AD00004020020014B18787047C0460402002031
:100AE00070B50400FFF7D8FF0500631C02D0044B6B
:100AF0001B78E418FFF7D0FF401BA042FAD370BD6B
:100B0000040200200221024A13688B4313607047DD
:100B100010E000E00221024A13680B4313607047A3
:100B200010E000E00048704700050701014B18681D
:100B3000000C704700580140024B18680005000D7A
:100B40007047C04600580140014B18687047C046C6
:100B5000ACF7FF1F014B18687047C046B0F7FF1F86
:100B6000014B18687047C046B4F7FF1F0221024AC4
:100B700053680B4353607047005801400221024AFA
:100B800053688B4353607047005801400421024A68
:100B900053680B4353607047005801400421024AD8
:100BA00053688B4353607047005801407047C046FC
:100BB00070B5041E00D176E02023C35C002B6AD000
:100BC00002212268022513688B431360FFF764FF3C
:100BD000060004E0FFF760FF801B0A2851D8236855
:100BE0005A681542F6D101211A6801250A431A6094
:100BF000FFF752FF060004E0FFF74EFF801B0A28B4
:100C00003FD823685A681542F6D0227E012A45D083
:100C100080211A688A431A60627E012A59D04021D5
:100C20001A688A431A60A27E012A4DD020211A68D0
:100C30008A431A60E27E012A41D010211A680A43D1
:100C40001A60227F012A35D008211A688A431A6067
:100C5000627F012A29D004211A688A431A60E16858
:100C6000A26800200A4321690A4361690A43616856
:100C700001390A43DA610023012263622033E2541E
:100C800008E08023626A9B021343636205222023EB
:100C90000120E25470BDFFF733FE91E780211A680E
:100CA0000A431A60B8E70120F4E704211A680A43EE
:100CB0001A60D4E708211A680A431A60C8E71021AD
:100CC0001A688A431A60BCE720211A680A431A602E
:100CD000B0E740211A680A431A60A4E77047C0468B
:100CE000202370B5C35C013B012B06D98023426AE7
:100CF000DB0213434362012070BD8024012203689C
:100D0000A40018598726104318514869E23CFF3C5B
:100D10000440A240D543B6009C592C409C51CC695C
:100D2000002C3BD1103E9C59C0002C409C51CC68FB
:100D30008E882404344390261818B60084518C6899
:100D40000E88240434439126B60084518124886996
:100D5000A40000281ED1185928401851852408697C
:100D6000A400002812D1185905401D51096A012913
:100D700004D187218900585802435A50802101200C
:100D800089005A5882435A500020B5E71859104339
:100D90001851EBE7185910431851DFE7012CD5D152
:100DA0008326B6009C59C00014439C510C688E8861
:100DB0002404344390261818B60084518C688E8918
:100DC000240434439126B6008451BFE7F8B52023AC
:100DD000C55C0400EDB2012D07D080230125426AD5
:100DE0001B03134343622800F8BD0222C254026869
:100DF00001261368AB431360FFF74EFE070004E0C3
:100E0000FFF74AFEC01B0A2806D823685B683340F8
:100E1000F6D163620025E6E78023626A9B021343F2
:100E2000636205222023E254DDE7C046202370B52B
:100E3000C35C0400022B06D08023426A5B03134389
:100E40004362012070BD01210268012513680B4334
:100E50001360FFF721FE060004E0FFF71DFE801B74
:100E60000A280BD823685A681542F6D002211A685E
:100E700000208A431A602023E554E3E78023626A56
:100E80009B0213436362052220230120E254D9E729
:100E900010B5041E10D0FFF7C9FF2000FFF784FD36
:100EA000802322681B02116800200B43136000237B
:100EB00020226362A35410BD0120FCE72023C35C01
:100EC000013B012B06D98023426ADB0213434362B4
:100ED0000120704702210268002013680B43136051
:100EE000F7E7C046002310B582B001932033C35CFE
:100EF000013B012B18D802210268022413688B439E
:100F000013600E4902E053681C4214D0019B013368
:100F10000193019B8B42F6D98023426A9B021343C3
:100F20004362012002B010BD8023426ADB021343FA
:100F300043620120F6E70020F4E7C04640420F007C
:100F40002023C35C0200013B0020012B03D813685F
:100F500058688007C00F704770B52024045D06688C
:100F6000013CB568012C46D8E0246405254249D0EF
:100F7000AD01AD0F032D4CD00120A84018608B6847
:100F8000002B4DD10B68C8685B050343280018305F
:100F900000018351C2230C692D0170195B00C450FC
:100FA000097D012903D1C458FF312143C150517932
:100FB000137909021943937975191B041943D379DD
:100FC0001B060B4329008D31FF310B6051781378DC
:100FD00009021943937889351B041943D378C02239
:100FE0001B060B430121FF352B60520083580B4336
:100FF0008350002005E08023426ADB0213434362F2
:10100000012070BD8023426A9B0313434362012089
:10101000F7E78023426A1B04134343620120F0E791
:101020004868CC68C0002343AFE7C046202310B512
:10103000C35C0200013B012B06D98023416ADB021D
:101040000B434362012010BDCB0704D58024006808
:101050008368234383608B0705D5802310681B02B8
:1010600084682343836000204B07ECD580231268FB
:101070001B0491680B439360E5E7C0462023C35CE3
:101080000200013B0020012B0BD812689068936886
:1010900040011B01DB0FC00FC0189368DB00DB0FA2
:1010A000C01870472023C25C0023013A012A06D8E9
:1010B0000368890698680840431A581E834118003F
:1010C0007047C0462023C35C0200013B0020012B77
:1010D00000D9704701290AD002394B1E99410131CC
:1010E00013681831090159184868000CF1E700210C
:1010F000F6E7C046F0B5CE464746202480B5045DED
:10110000013C012C00D97AE00468A14600290CD1E9
:10111000E468A4070CD18023426A9B031343436213
:1011200001200CBC90469946F0BD2469A407F2D07A
:101130004D46D8270C012E197F00BC46F759B846FA
:10114000042745462F40976065465FD07759FF08D2
:101150005760D8277F00F559AF3FFF3F2F40DA2572
:101160006D00D760AC460F2775592F406546176153
:10117000775976593F043F0E360C976156614A46BF
:101180001519B935FF352A681A7002681219B93273
:10119000FF321268120A5A7002681219B932FF320D
:1011A0001268120C9A7002681219B932FF32126872
:1011B000120EDA7002681219BD32FF3212681A710B
:1011C00002681219BD32FF321268120A5A7102689F
:1011D0001219BD32FF321268120C9A7102689446DD
:1011E0006444BD34FF342268120EDA7102680029AB
:1011F00010D1D36820310B43D360002091E78023C6
:10120000426ADB021343436201208AE777597F0D6C
:1012100017609EE72021136900200B43136180E7CC
:101220002023C35C0200013B0020012B00D9704742
:101230001368002903D1DB6803301840F7E7032067
:101240001B691840F3E7C0462023C35C013B012B18
:1012500006D98023426ADB021343436201207047B0
:101260000268002053690B435361F8E72023C35CF5
:10127000013B012B06D98023426ADB021343436200
:10128000012070470268002053698B435361F8E7DF
:101290007047C0467047C0467047C0467047C0465A
:1012A0007047C0467047C0467047C0467047C0464A
:1012B0007047C0467047C0467047C0467047C0463A
:1012C0007047C046F8B557464E464546DE46036869
:1012D000E0B55C695A689F689046DA6805009246F6
:1012E0001A6991469A69934601221600264021D038
:1012F00016003E4000D096E080235B001F420AD0DB
:101300002A689360BB0500D5D2E07B0500D4E5E0F8
:1013100080239B011E4380235B021F420AD02A6860
:101320009360BA0300D5BFE07A0300D4D2E08023F3
:101330001B021E43230708D510235246134204D034
:101340008022920016432A68D360630704D50823DD
:101350005246134200D078E0A30704D52B68DB681F
:101360009B0700D090E0630608D510234A4613423D
:1013700004D08022D20016432A681361A30604D544
:1013800008234A46134200D085E0E30603D52B68C4
:101390001B699B0762D1A30303D510234246134266
:1013A00062D1E30303D508234246134264D12304E8
:1013B00031D542462B6852072BD5E20504D50122D0
:1013C00059460A4200D01643A20504D502225946C6
:1013D0000A4200D01643620504D5042259460A4247
:1013E00000D01643220514D5702259460A4010D069
:1013F000302A00D18DE063D9502A00D17BE0602AE9
:1014000000D171E0402A00D170E070219A698A43CE
:101410009A6104225A60002E10D13CBC9046994635
:10142000A246AB46F8BD9A60BB0745D47B074ED4B5
:1014300008263E4062D0802676015DE76B6A280070
:101440001E436E62FFF784F8E7E72A682800D3603E
:10145000FFF72CFFA30700D485E77FE72800FFF7FD
:1014600027FFA3039DD598E72A6828005360FFF75C
:1014700023FFE3039BD596E72A6828005360FFF714
:101480001DFF2304C7D594E72800FFF74DF8630636
:1014900000D473E769E72A6828001361FFF70AFFA1
:1014A000E30600D477E772E72800FFF7F5FE41E78F
:1014B0002800FFF7EFFE2EE7FFF7EAFE00261BE706
:1014C000102A15D0202AA0D1102216439DE780268D
:1014D000360111E73A0318D51E432BE73B0510D51B
:1014E0008023DB011E4316E78022520016438CE75F
:1014F0000822164389E78022164386E7FFF7CEFECF
:10150000FAE62800FFF7CCFE05E72800FFF7CAFE41
:1015100010E72022164378E72023C35CDBB25A1E73
:10152000012A01D918007047022201684868024266
:1015300004D109680A42F5D00323F3E70423F1E755
:10154000406A70472023C35C013B012B06D98023EE
:10155000426ADB0213434362012070470023436267
:101560000020FAE7FF22032310B514000340DB003C
:101570009C4089010A40E4439A4000280BDB0C4B55
:1015800080089C46C023800060449B00C1580C40EA
:101590002243C25010BD0F231840064B08389C460A
:1015A000800880006044C1690C402243C261F1E7B9
:1015B00000E100E000ED00E0002805DB1F231840FB
:1015C0001E3B8340014A13607047C04600E100E0C3
:1015D00000280ADB1F2318401E3B8340802203495A
:1015E0008B50BFF34F8FBFF36F8F704700E100E068
:1015F000BFF34F8F034B044ADA60BFF34F8FC046EF
:10160000FDE7C04600ED00E00400FA050A4A431E6B
:10161000012093420ED8C021084A09485360036A4A
:1016200009061B021B0A0B43036200230020936080
:10163000073313607047C046FFFFFF0010E000E073
:1016400000ED00E0032211000140C900002809DB81
:10165000800803000A48C0339B001858C84080091E
:10166000104070470F231840064B08389C468008EE
:10167000800060444068C84080091040F1E7C046DF
:1016800000E100E018ED00E0002807DB1F238022C6
:1016900018401E3B8340024952008B507047C046A1
:1016A00000E100E0002809DB8023054A5B00D358F5
:1016B0001F220240D3400120184070470020FCE761
:1016C00000E100E0002807DB1F23C02218401E3B7A
:1016D0008340024952008B507047C04600E100E051
:1016E000054A1368042803D004218B431360704714
:1016F00018431060FBE7C04610E000E07047C046AA
:1017000010B5FFF7FBFF10BD0B68F0B59C46DE4639
:1017100057464E4645466246E0B5002387B0002A4C
:1017200000D1ADE001229346634A0F000392634A61
:101730009046624601925AE0C46814402643C6604F
:10174000524604686546224003242C408C40802188
:101750002243490502600D4245D05946039C0F259E
:10176000A2690A435946A261A26903240A40544966
:101770001C408A46A400A5400592059A9A0892004A
:1017800052449168A9439025ED05A8420AD04D4DD9
:10179000A84200D188E04C4DA84200D188E0052540
:1017A000A5402943916049464246CC4361461268B0
:1017B000C90300D575E0224041460A604A68614687
:1017C00089036BD4224041464A6062468968D2024E
:1017D00061D42140424691606146D268890256D464
:1017E00022404146CA60019A0133DA4048D05C4643
:1017F0009C40019A22409146F5D07A685900150024
:101800009446102295430D3A8A40D243BE68029511
:10181000013D92468E40012D8ED885681540FA68AC
:101820008A401543624685604568A54314095A46B7
:1018300014409C4052462C434460C4681440029AB1
:101840002643C660022A00D07AE707251D40AD0076
:101850000D32AA40DC08A4000419266A013396431D
:101860003A69AA401643524626620468032514408A
:1018700062462A408A4022430260019ADA40B6D189
:1018800007B03CBC90469946A246AB46F0BD4946DF
:1018900011430A00A5E74A4611439BE749460A431C
:1018A00091E749460A4387E75D46A540294379E722
:1018B0000225A540294375E70010024000040140BD
:1018C000000001400004004800080048F0B5DE4672
:1018D00057464E464546E0B5002383B000295DD00B
:1018E00001229146023293460C329446334A0191CA
:1018F00090463BE03249884257D03249884258D01E
:101900000521B1400E00B74211D14146E4430E68B3
:1019100026400E604E6826404E608E6826408E60DF
:10192000CE683440CC60514694688C4394605946EC
:101930005C00A1400727CC4361461F40BF00B9406F
:10194000026822400260DA0892008218166A8E430A
:101950001662C2682240C2604268AA43426082683E
:1019600014408460019A0133DA4017D04D469D40FF
:10197000019C2C40F6D014495E468A4661461E40C2
:10198000B600B1409A089200524497688A460F40C8
:101990009021C9058842ADD10026B4E703B03CBC14
:1019A00090469946A246AB46F0BD4946B1400E006E
:1019B000A9E70221B1400E00A5E7C046000401409E
:1019C0000004004800080048000001400069084089
:1019D000411E8841C0B27047002A01D08161704722
:1019E0008162FCE7426913000B401B0491430B43E7
:1019F00083617047802382B05B020193019B0B439C
:101A00000193019BC361C161019BC361C3690193E0
:101A1000C36901201B0C984302B070477047C04651
:101A2000044B10B55A69104200D110BD5861FFF740
:101A3000F5FFFAE700040140F8B5FFF72DF8812221
:101A4000264C0500236802261343236004E0FFF7B9
:101A500023F8401B02281DD823681E42F7D0636874
:101A60001F4A0C26134063601E4F1C4C04E0FFF716
:101A700013F8401BB8420DD863681E42F7D11A4BC9
:101A80001A4A1A601A4B1868FEF7C6FF051E04D0E2
:101A9000012500E003252800F8BD2368154A8026AB
:101AA000134023602368144AB60413402360FEF7F2
:101AB000F3FF0A4C070004E0FEF7EEFFC01B02280C
:101AC000E8D823683340F7D16360E3622363A360FF
:101AD0008023626A5B0413436362DCE70010024008
:101AE0000CF8FFF0881300000002002000127A00BA
:101AF00008020020FFFFF6FEFFFFFBFFF0B5CE4619
:101B0000474680B5040083B0002800D118E103687F
:101B1000DA072FD50C21C24842680A40042A00D1B6
:101B20004CE142681140082900D13EE16368012B75
:101B300000D14DE1002B00D163E1052B00D16FE214
:101B4000B74BB8491A680A401A601A68B6490A4081
:101B50001A60FEF7A1FF80250700B14EAD0205E037
:101B6000FEF79AFFC01B642800D948E133682B4276
:101B7000F6D023689A0729D50C22A9494868024261
:101B800000D1ECE048680240082A00D1DEE0E368BA
:101B9000002B00D17BE10122A14F02253B681343BA
:101BA0003B60FEF779FF060005E0FEF775FF801B3E
:101BB000022800D923E13B681D42F6D0F8213A689B
:101BC00023698A43DB0013433B6023681A072DD443
:101BD0005A0745D580220020914B5205D96980468D
:101BE000114208D1D9691143D961DB691A400192C8
:101BF000019B0123984680278C4E7F0033683B422F
:101C000000D1ECE0A368012B00D154E1002B00D1FE
:101C10001AE1052B00D1DAE10121814B1A6A8A43CE
:101C20001A621A6A03318A431A6248E1E3697C4DF9
:101C3000002B00D1A6E001226B6A022613436B62DF
:101C4000FEF72AFF070005E0FEF726FFC01B02286B
:101C500000D9D4E06B6A1E42F6D023685A07B9D483
:101C6000DA0612D56269012A00D1BAE1053200D044
:101C700036E10420F8256A494A6B82434A63486B7F
:101C8000A269A843D20002434A639B0622D50C22D4
:101C900063494B6813400C2B00D141E14B681A405B
:101CA000082A00D135E1236A002B00D142E18026C9
:101CB0005B4D76026B6B33436B63FEF7EDFE070003
:101CC00005E0FEF7E9FEC01B022800D997E06B6B28
:101CD0003342F6D0636A002B1BD00C22504D69684A
:101CE0000A40082A17D0022B00D138E12B68504A4D
:101CF000802413402B60FEF7CFFEA404060005E00D
:101D0000FEF7CAFE801B022800D978E02B68234228
:101D1000F6D1002015E0012B12D0C0236A68A06A1A
:101D20005B02E96A134083420AD10F230B40216B07
:101D30008B4205D1F0239B031A40E36A9A42E8D014
:101D4000012003B00CBC90469946F0BD4A68C02102
:101D500049020A40802109028A4200D017E7304A2E
:101D60001268920702D5E268012AE9D1F8252C48C9
:101D700022690168D200A9430A4302601A0700D40D
:101D800026E753E701226B6A022693436B62FEF754
:101D900083FE070004E0FEF77FFEC01B02282ED85A
:101DA0006B6A1E42F7D1236858E7C0214268490296
:101DB0000A40802149028A4200D0B7E6184A1268D8
:101DC000920300D4D6E66268002A00D0D2E6B7E7D4
:101DD0008023134A5B0211680B431360B9E6336832
:101DE0003B433360FEF758FE050004E0FEF754FE67
:101DF000401B642803D833683B42F7D002E7032036
:101E00009FE7074D074A2B68802613402B602B68FD
:101E1000054AB60213402B60FEF73EFE07000EE0B7
:101E200000100240FFFFFEFFFFFFFBFF00700040BD
:101E3000FFFFFFFEFEF730FEC01B6428DFD82B68D3
:101E40003342F7D1236895E601227B4E0227336A9D
:101E50007A4D93433362336A033293433362FEF71E
:101E60001BFE814605E0FEF717FE4B46C01AA8424E
:101E7000C5D8336A1F42F6D142462368012A00D0F2
:101E8000EEE66D496E48CA690240CA61E8E6012281
:101E9000694D02262B6893432B60FEF7FDFD07007A
:101EA00004E0FEF7F9FDC01B0228A8D82B681E42EB
:101EB000F7D123688AE660490A6A13430B62FEF78A
:101EC000EBFD5D4F814602265C4D05E0FEF7E4FD2B
:101ED0004B46C01AA84292D83B6A1E42F6D0CBE7C6
:101EE0000422554D02266B6B13436B636B6B033AF5
:101EF00093436B63FEF7D0FD070005E0FEF7CCFDD2
:101F0000C01B022800D97AE76B6B1E42F6D123680A
:101F1000BBE6C0224B6852021340934200D0C2E697
:101F2000454B5B6BDB0300D4D4E6236A012B00D066
:101F300006E7CFE6404D434A6B6B802613406B6348
:101F4000FEF7AAFD7602070005E0FEF7A5FDC01B1F
:101F5000022800D953E76B6B3342F6D1BAE62B68FF
:101F6000394A802613402B60FEF796FDB604070021
:101F700005E0FEF791FDC01B022800D93FE72B6862
:101F80003342F6D10F22EB6A9343226B1343EB6289
:101F9000A16AE36A6A680B432C4980240A40134310
:101FA0006B6080232A685B0413432B60FEF774FD8B
:101FB000214D0600A40405E0FEF76EFD801B0228FB
:101FC00000D91CE72B682342F6D00020B9E6042193
:101FD000194B1A6A0A431A621A6A03390A431A62C7
:101FE0006DE70421144D02266B6B0B436B636B6B27
:101FF0001A436A63FEF750FD070005E0FEF74CFD4B
:10200000C01B022800D9FAE66B6B1E42F6D0F821FD
:102010006A6BA3698A43DB0013436B63236834E66E
:102020008022054BD20219680A431A60802219687F
:1020300052020A431A608CE5001002408813000027
:10204000FFFFFFEFFFFFFEFFFFFFFFFEFF7FC2FF6F
:10205000022370B586B002931600013380220493E8
:1020600000230D00802190200C4C5200039301921C
:102070000593626989020A4362616369C0050B4086
:10208000009301A9009BFFF73FFB6168044B1940D7
:1020900031432943616006B070BDC0460010024064
:1020A000FFFFFF808023034A1B0311680B4313606B
:1020B0007047C04600100240024A034913680B40B3
:1020C0001360704700100240FFFFF7FF70B588B043
:1020D00069461C4B0A00180070C870C200681033B3
:1020E000106004AA100070CB70C01B68164D03600E
:1020F0000C206B68184008280AD00C38434258411D
:10210000124B40421840124B9C46604408B070BDD0
:102110000F209C0C04400C5DE96A0840115CC02251
:102120008020520213404002834201D0934204D0E7
:102130000748FEF719F86043E8E70648FEF714F889
:102140006043E3E7BC23000800100240005A62022B
:1021500000127A00006CDC02F8B5CE464746040057
:1021600080B50D0000280DD001233F490A681A40B0
:10217000AA420CD20A689A432A430A600A681340AA
:10218000AB4204D001200CBC90469946F8BD2368B0
:102190009A070ED55A0705D5E0223449D20048687F
:1021A00002434A60F02031494A688243A0680243F2
:1021B0004A60DB0723D562682C4B012A49D0022AEA
:1021C00043D0032A4BD01B689B07DBD50321274E46
:1021D0000C2773688B4313437360FEF75DFC244B3D
:1021E0008146984605E0FEF757FC4B46C01A40452D
:1021F00033D8726863683A409B009A42F3D1012158
:10220000194A13680B40AB4205D913688B4313601E
:1022100013681942B6D123685B0706D5134A1549DE
:1022200053680B40E1680B435360FFF74FFF0F4BC0
:10223000114A5B681B061B0FD35CD8400F4B18601C
:102240000020FEF7E9FB00209DE71B689B01BDD441
:1022500098E71B689B03B9D494E7032093E75B6B73
:10226000DB03B3D48EE7C0460020024000100240DA
:1022700088130000FFF8FFFFA423000800020020DD
:10228000014B18687047C04600020020044B054A05
:102290005B685B055B0FD35C034A1068D8407047EE
:1022A00000100240B4230008000200203F23036016
:1022B000244B1A68520338D5052343600121214A73
:1022C00013680B40C36013681B06DB0E0361136ABF
:1022D0005B0725D50523836001221A4B596A1140FB
:1022E000C161596B11404161596B0906C90E816189
:1022F000596B090C0A40C02102621A684902D201D6
:10230000D20F013242625A680A40F02182625A6852
:1023100089030A40C262DA6A0F23134003637047DD
:10232000136A0B4009D08160D6E780221B685202F5
:10233000134004D001234360C0E78360CCE74360CF
:10234000BCE7C046001002400723032203600A4B8B
:1023500010B55C6822404260F0225C6822408260D6
:10236000E0225B68D2001340C360044B1A6801236B
:1023700013400B6010BDC046001002400020024018
:102380007047C04610B58024044B9B681C4200D1A6
:1023900010BDFFF7F5FF024B1C70F9E7001002407B
:0423A0000A100240DD
:1023A4000000000000000000010203040607080901
:1023B40000000000010203040203040506070809E3
:1023C4000A0B0C0D0E0F101001020304050607087A
:0C23D400090A0B0C0D0E0F104572720070
:0C23E00000127A00010000000400000060
:0423EC0021070008BD
:04000005080000C02F
:00000001FF
