:020000040800F2
:10000000000400204D030008010A0008070A000848
:1000100000000000000000000000000000000000E0
:100020000000000000000000000000000D0A0008B1
:100030000000000000000000170A0008210A000864
:100040008D0300088D0300088D0300088D03000850
:100050008D0300088D0300088D0300088D03000840
:100060008D0300088D0300088D0300088D03000830
:100070008D0300088D0300088D0300088D03000820
:100080008D03000800000000000000008D03000840
:10009000000000008D0300088D0300088D03000898
:1000A000000000008D0300088D0300088D03000888
:1000B000B508000800000000310A00088D030008A0
:1000C000F0B5050083074AD0541E002A44D003002F
:1000D0000322CEB202E00135013C3DD301332E7044
:1000E0001342F8D1032C2FD9FF220A4015021543E1
:1000F0002A0415430F2C35D92700103F3F093E0134
:10010000B4461E001A0010366644156055609560AE
:10011000D5601032B242F8D10F260C2201373F01D0
:100120002640DB193700224217D03E1FB608B40024
:10013000A4461A001C1D644420C2A242FCD1032420
:100140000136B6009B193C40002C05D0C9B21C19E1
:10015000197001339C42FBD1F0BD3400F4E7140068
:100160000300BFE72700E0E7002243088B4274D377
:1001700003098B425FD3030A8B4244D3030B8B42A8
:1001800028D3030C8B420DD3FF22090212BA030CB1
:100190008B4202D31212090265D0030B8B4219D392
:1001A00000E0090AC30B8B4201D3CB03C01A5241B2
:1001B000830B8B4201D38B03C01A5241430B8B42FA
:1001C00001D34B03C01A5241030B8B4201D30B03E3
:1001D000C01A5241C30A8B4201D3CB02C01A52410A
:1001E000830A8B4201D38B02C01A5241430A8B42CD
:1001F00001D34B02C01A5241030A8B4201D30B02B6
:10020000C01A5241CDD2C3098B4201D3CB01C01ACF
:10021000524183098B4201D38B01C01A52414309D9
:100220008B4201D34B01C01A524103098B4201D3C7
:100230000B01C01A5241C3088B4201D3CB00C01A34
:10024000524183088B4201D38B00C01A52414308AC
:100250008B4201D34B00C01A5241411A00D20146D1
:10026000524110467047FFE701B5002000F006F844
:1002700002BDC0460029F7D076E770477047C046F8
:1002800080B500AFC046BD4680BD80B500AFC0465A
:10029000BD4680BD80B582B000AF174A174BD31A58
:1002A0009B103B6000237B607A683B689A4208DAC7
:1002B000124B7A689200D35898477B6801337B6071
:1002C000F2E7FFF7DDFF0E4A0E4BD31A9B103B609F
:1002D00000237B607A683B689A4208DA094B7A68A7
:1002E0009200D35898477B6801337B60F2E7C046A1
:1002F000BD4602B080BDC046000000000000000006
:10030000000000000000000080B582B000AF0D4A80
:100310000D4BD31A9B103B603B687B607B68002BC6
:1003200009DD7B685A1E084B9200D35898477B68BA
:10033000013B7B60F2E7FFF7A8FFC046BD4602B075
:1003400080BDC04600000000000000000A4D0B4CBC
:100350000B4B9C4204D02B68236004350434F7E730
:10036000084C094B9C4203D0002323600434F8E777
:1003700072B600F051F8FEE7183C000800040020B7
:100380000C040020100400208C04002080B500AF75
:10039000FEE7000080B582B000AF78600B4B0C4ADE
:1003A0007868002101F002FB03005A425341DBB29E
:1003B000002B06D080239B01064A1900100002F092
:1003C000BBFBC046BD4602B080BDC04678040020DD
:1003D000540400200008004880B584B000AF786065
:1003E0007B68180001F0E1FE0300FB60084A094B3E
:1003F0001100180000F0DAF9FB68DAB2054B1100C1
:10040000180000F0B7F9C046BD4604B080BDC04634
:10041000DC3B00083804002080B582B000AF00F05B
:10042000E9FB00F073F862B6C04600F015F900F081
:10043000BDF8304B1B78002B02D12E4B02221A70D4
:100440002D4BDE2292001A602B4B00225A602A4B61
:100450000022DA60284B00229A60274B08221A619A
:10046000254B00221A75254B180000F08EFF244AF8
:10047000224B1100180001F0E8FBFB1D00221A704E
:10048000FB1D1B78072B0DD8FB1D1B78FA1D12785E
:100490000A32D1B21B4AD154FB1D1A78FB1D01321E
:1004A0001A70EDE7BB1D00221A70134BDE2292007A
:1004B0001A60144B5A221A70104B180001F0D2F92E
:1004C00003005A425341DBB2002B00D0F4E70E4B3D
:1004D0000C4A0949094801F09FF8BB1D1A78054BE1
:1004E0001100180000F046F9FA235B00180000F034
:1004F0005DFCDAE7380400203C04002010040020F2
:10050000028C0000700400208004002090B593B09D
:1005100000AF14243B19180034231A000021FFF700
:10052000CFFD3B1D180010231A000021FFF7C8FD66
:1005300021007B1801221A607B1801225A607B1867
:1005400002225A627B18802252029A627B18802211
:100550001203DA627B1800221A637B18180002F07B
:10056000FFFB03005A1E9341DBB2002B01D000F0C9
:10057000A7F83B1D07221A603B1D02225A603B1D53
:1005800000229A603B1D0022DA603B1D0121180009
:1005900003F00CF803005A1E9341DBB2002B01D08C
:1005A00000F08EF8C046BD4613B090BD80B58AB04D
:1005B00000AF274B274A1A60254B04225A60244B70
:1005C00000229A60224B0022DA60214BC0221203E3
:1005D0001A611F4B802252035A611D4B00221A766A
:1005E0001B4B01225A761A4B00229A76184B012295
:1005F000DA76174B00221A77154B01225A77144BE3
:10060000180000F089FC3B0000225A613B000022E8
:100610009A613B000122DA613B0000221A603B0034
:1006200000225A603B0000229A603B000022DA6000
:100630003B0000221A613B0001221A623A00044B7F
:100640001100180000F0AFFDC046BD460AB080BDE5
:10065000100400200064004080B584B000AF174B48
:100660005A69164B8021C9020A435A61134B5A69D1
:100670008023DB021340FB60FB68104B5A690F4B71
:100680008021C9030A435A610C4B5A698023DB035A
:100690001340BB60BB68094B5A69084B8021890233
:1006A0000A435A61054B5A6980239B0213407B60C1
:1006B0007B68C046BD4604B080BDC0460010024005
:1006C00080B500AF72B6C046FEE7000080B582B0CC
:1006D00000AF786039607B68012B07D13B68054A21
:1006E000934203D1044B180000F02EF8C046BD46DB
:1006F00002B080BDFFFF00003804002080B500AFCD
:10070000034B19000120FFF7E1FFBD4680BDC04645
:10071000FFFF000080B582B000AF0200FB1D1A7021
:10072000FB1D1B787F2B09D8FB1D1B781A001F238C
:100730001A40044B012191400A001A60C046BD4690
:1007400002B080BD00E100E080B582B000AF78600B
:100750007B6800221A70064B7A681A607B68180062
:1007600000F03CF87B681800BD4602B080BDC04672
:100770008404002080B582B000AF78600A00FB1CC2
:100780001A70094BDB69802213405A425341DBB295
:10079000002B00D0F5E7044AFB1C1B789BB21385A5
:1007A000C046BD4602B080BD0044004080B582B066
:1007B00000AF786039603B681B78002B09D03B683C
:1007C0005A1C3A601A787B6811001800FFF7D2FFB4
:1007D000F1E7C046BD4602B080BD000080B582B0E2
:1007E00000AF78602F4B5A692E4B802189020A4353
:1007F0005A619023DB051A689023DB05A0210A4388
:100800001A609023DB051A689023DB0550218A4388
:100810001A609023DB059A689023DB05F0210A43D8
:100820009A609023DB055A689023DB0504210A4374
:100830005A609023DB051A6A9023DB058821490161
:100840000A431A62184B1A68174B01218A431A602F
:10085000144BDA69134B802189020A43DA61124B87
:100860001A68114B11490A401A600F4B1A680E4B57
:100870000C210A431A600C4B0D4ADA600A4B1A68C5
:10088000094B20210A431A60074B1A68064B0121C5
:100890000A431A601C20FFF73DFFC046BD4602B068
:1008A00080BDC0460010024000440040FFEFFFEF53
:1008B000040D000080B500AF094BDB692022134016
:1008C0005A1E9341DBB2002B06D0054B9B8C9AB28B
:1008D000044B1B68D2B21A70C046BD4680BDC046EC
:1008E000004400408404002080B500AFC046BD46EF
:1008F00080BD000080B584B000AF0023FB60002302
:10090000BB6000237B6000233B60384B5B680C229C
:100910001340FB60FB68082B11D0FB68082B4FD8F5
:10092000FB68002B03D0FB68042B04D048E0304B5D
:10093000304A1A6048E02E4B2E4A1A6044E02B4B96
:100940005A68F0239B031340BB60284B5A68C023AE
:100950005B0213407B60BB689B0C0233BB60234B84
:10096000DB6A0F22134001333B607A6880235B020D
:100970009A420AD139681F48FFF7F6FB03001A00B4
:10098000BB685A431A4B1A601EE07A68C0235B02A8
:100990009A420AD139681848FFF7E6FB03001A00AB
:1009A000BB685A43124B1A600EE039681148FFF7D2
:1009B000DBFB03001A00BB685A430D4B1A6003E0CF
:1009C0000B4B0C4A1A60C046084B5B681B090F2290
:1009D00013400A4AD35CFB60054B1A68FB68DA4097
:1009E000034B1A60C046BD4604B080BD00100240F3
:1009F0000004002000127A00006CDC02E03B0008DA
:100A000080B500AFFEE780B500AFFEE780B500AF70
:100A1000C046BD4680BD80B500AFC046BD4680BD66
:100A200080B500AF00F05CF9C046BD4680BD000057
:100A300080B500AF034B180001F05CF9C046BD461D
:100A400080BDC0461004002080B582B000AF124BBC
:100A50009A69114B01210A439A610F4B9B6901224C
:100A600013407B607B680C4BDA690B4B8021490596
:100A70000A43DA61084BDA6980235B0513403B6067
:100A80003B68064B1A68054B10210A431A60C046A2
:100A9000BD4602B080BDC0460010024000000140CB
:100AA00090B58BB000AF786014243B191800142364
:100AB0001A000021FFF704FB7B681B68334A93424E
:100AC0005FD1334BDA69324B802189040A43DA6102
:100AD0002F4BDA6980239B0413403B613B692C4B0D
:100AE0005A692B4B8021C9020A435A61284B5A6923
:100AF0008023DB021340FB60FB68254B5A69244BC3
:100B0000802189020A435A61214B5A6980239B0242
:100B10001340BB60BB683B19802252001A603B192E
:100B200002225A603B1900229A603B190322DA60C4
:100B30003B1904221A613B19164A1900100001F0F2
:100B40008FFD21007B18802252011A607B1802223F
:100B50005A607B1800229A607B180322DA607B18A7
:100B600004221A617A189023DB051100180001F0A5
:100B700077FD002200211E2001F0C4FC1E2001F0A0
:100B8000D6FCC046BD460BB090BDC04600640040D8
:100B9000001002400004004880B582B000AF7860C9
:100BA0007B681B680F4A934217D10F4BDA690E4BD3
:100BB0000E490A40DA6180235B000D4A19001000DB
:100BC00001F0B6FE80235A019023DB0511001800C6
:100BD00001F0AEFE1E2001F0BAFCC046BD4602B0D8
:100BE00080BDC0460064004000100240FFFFFFFDD2
:100BF0000004004880B500AF074B1A68064B10216F
:100C00000A431A60002000F033F8FFF71DFF0023AD
:100C10001800BD4680BDC0460020024080B500AF30
:100C20000D4B012252421A610B4B00221A610A4BF2
:100C300001225242DA60084B0022DA60064B0122A0
:100C400052429A62044B00229A6200F00CF8002390
:100C50001800BD4680BDC0460010024080B500AF00
:100C6000C046BD4680BD80B500AFC046BD4680BD14
:100C700090B583B000AF7860164B1C68164B1B789C
:100C80001900FA239800FFF76FFA030019002000FB
:100C9000FFF76AFA0300180001F06DFC03005A1E0A
:100CA0009341DBB2002B01D001230FE07B68032BC3
:100CB0000BD8796801235B420022180001F022FC66
:100CC000064B7A681A60002300E001231800BD4635
:100CD00003B090BD0004002008040020040400209C
:100CE00080B500AF054B1B781A00054B1B68D21866
:100CF000034B1A60C046BD4680BDC04608040020B4
:100D00008804002080B500AF024B1B681800BD4668
:100D100080BDC0468804002080B500AF024B1B6830
:100D20001800BD4680BDC04604040020F0B585B063
:100D300000AF0200FB1D1A700F217B1800221A70F1
:100D4000134B1B78FA1D12789A4219D00E26BB1944
:100D50000F4A12781A700E4BFA1D12781A700D4B4A
:100D60001B680D007C181800FFF782FF030023703A
:100D70007B191B78002B03D0054BBA1912781A7017
:100D80000F23FB181B781800BD4605B0F0BDC04608
:100D9000080400200404002080B500AF024B1B783B
:100DA0001800BD4680BDC0460804002080B584B050
:100DB00000AF7860FFF7A6FF0300BB607B68FB60B5
:100DC000FB68013305D00B4B1B781A00FB689B189E
:100DD000FB60FFF797FF0200BB68D21AFB689A42DC
:100DE0009B415B42DBB2002B00D0F2E7C046BD4620
:100DF00004B080BD0804002080B500AF044B1A6821
:100E0000034B02218A431A60C046BD4680BDC046DE
:100E100010E000E080B500AF044B1A68034B0221DC
:100E20000A431A60C046BD4680BDC04610E000E0DF
:100E300080B500AF014B1800BD4680BD000507011D
:100E400080B500AF024B1B681B0C1800BD4680BD6F
:100E50000058014080B500AF034B1B681B051B0DFC
:100E60001800BD4680BDC0460058014080B500AFA7
:100E7000024B1B681800BD4680BDC046ACF7FF1F83
:100E800080B500AF024B1B681800BD4680BDC04650
:100E9000B0F7FF1F80B500AF024B1B681800BD46BE
:100EA00080BDC046B4F7FF1F80B500AF044B5A6841
:100EB000034B02210A435A60C046BD4680BDC0466E
:100EC0000058014080B500AF044B5A68034B022123
:100ED0008A435A60C046BD4680BDC04600580140A6
:100EE00080B500AF044B5A68034B04210A435A6093
:100EF000C046BD4680BDC0460058014080B500AF29
:100F0000044B5A68034B04218A435A60C046BD46CD
:100F100080BDC0460058014080B584B000AF786005
:100F20007B68002B01D1012303E17B6820229B5CBD
:100F3000DBB25A425341DBB2002B03D07B6818006E
:100F4000FFF7AEFD7B681B681A687B681B6802218F
:100F50008A431A60FFF7D6FE0300FB607B681B68BC
:100F60005B68022213405A1E9341DBB2002B18D05B
:100F7000FFF7C8FE0200FB68D31A0A229A429B417F
:100F80005B42DBB2002BE9D07B685B6A8022920275
:100F90001A437B685A627B682022052199540123F9
:100FA000C7E07B681B681A687B681B6801210A43DD
:100FB0001A60FFF7A7FE0300FB607B681B685B6895
:100FC000012213405A425341DBB2002B18D0FFF7E5
:100FD00099FE0200FB68D31A0A229A429B415B42A7
:100FE000DBB2002BE9D07B685B6A802292021A4355
:100FF0007B685A627B68202205219954012398E07E
:101000007B681B7E012B08D17B681B681A687B6894
:101010001B6880210A431A6007E07B681B681A6816
:101020007B681B6880218A431A607B685B7E012B8A
:1010300008D17B681B681A687B681B6840210A43DB
:101040001A6007E07B681B681A687B681B68402190
:101050008A431A607B689B7E012B08D17B681B68E2
:101060001A687B681B6820210A431A6007E07B68C6
:101070001B681A687B681B6820218A431A607B689A
:10108000DB7E012B08D17B681B681A687B681B68B4
:1010900010218A431A6007E07B681B681A687B6826
:1010A0001B6810210A431A607B681B7F012B08D143
:1010B0007B681B681A687B681B6808210A431A60F2
:1010C00007E07B681B681A687B681B6808218A43F5
:1010D0001A607B685B7F012B08D17B681B681A68EC
:1010E0007B681B6804210A431A6007E07B681B6861
:1010F0001A687B681B6804218A431A607B689A68B7
:101100007B68DB681A437B681B691A437B685B69F1
:101110001A4311007B685B685A1E7B681B680A4390
:10112000DA617B6800225A627B682022012199548F
:1011300000231800BD4604B080BD80B582B000AF6A
:1011400078607B68002B01D1012318E07B681800D0
:1011500000F06DF97B681800FFF71EFD7B681B68C7
:101160001A687B681B68802109020A431A607B6841
:1011700000225A627B682022002199540023180023
:10118000BD4602B080BD80B582B000AF7860C04679
:10119000BD4602B080BD80B582B000AF7860C04669
:1011A000BD4602B080BD80B586B000AF78603960C2
:1011B0007B681B687B6113203B187A682021525C96
:1011C0001A700200BB181B78012B04D0BB181B78C7
:1011D000022B00D0CDE07A6980239B00D3580122F6
:1011E0001A4311007A6980239B00D1503B685B69E8
:1011F0001F22134001229A401300FB607A69872363
:101200009B00D358FA68D2431A4011007A698723A9
:101210009B00D1503B68DB69002B29D17A6983237D
:101220009B00D358FA68D2431A4011007A6983238D
:101230009B00D1503B68DB6818043B685B681B046B
:10124000190C3B685A6901437B694832D200D1507E
:101250003B689B6819043B681B681B041A0C3B68BD
:101260005B690A4379694833DB00CB1804331A60A1
:101270003B68DB69012B28D17A6983239B00D25814
:10128000FB681A4311007A6983239B00D1503B68A5
:101290001B6818043B685B681B04190C3B685A699F
:1012A00001437B694832D200D1503B689B681904E6
:1012B0003B68DB681B041A0C3B685B690A4379696D
:1012C0004833DB00CB1804331A603B689B69002B62
:1012D0000CD17A6981239B00D358FA68D2431A4013
:1012E00011007A6981239B00D1500AE07A69812339
:1012F0009B00D258FB681A4311007A6981239B0036
:10130000D1503B681B69002B0CD17A6985239B0067
:10131000D358FA68D2431A4011007A6985239B009A
:10132000D1500AE07A6985239B00D258FB681A43A2
:1013300011007A6985239B00D1503B681B6A012B01
:101340000AD17A6987239B00D258FB681A4311009F
:101350007A6987239B00D1507A6980239B00D358F8
:101360000122934319007A6980239B00D150002306
:1013700007E07B685B6A8022D2021A437B685A626C
:1013800001231800BD4606B080BD80B584B000AF13
:1013900078607B6820229B5CDBB2013B5A42534160
:1013A000DBB2002B37D07B682022022199547B6866
:1013B0001B681A687B681B6801218A431A60FFF763
:1013C000A1FC0300FB607B681B685B680122134083
:1013D0005A1E9341DBB2002B18D0FFF793FC02009A
:1013E000FB68D31A0A229A429B415B42DBB2002B74
:1013F000E9D07B685B6A802292021A437B685A625A
:101400007B6820220521995401230CE07B6800228F
:101410005A62002307E07B685B6A802212031A434A
:101420007B685A6201231800BD4604B080BD80B5B8
:1014300084B000AF78607B6820229B5CDBB2023B0B
:101440005A425341DBB2002B3CD07B681B681A68C0
:101450007B681B6801210A431A60FFF753FC0300F5
:10146000FB607B681B685B68012213405A42534152
:10147000DBB2002B18D0FFF745FC0200FB68D31A43
:101480000A229A429B415B42DBB2002BE9D07B6887
:101490005B6A802292021A437B685A627B68202230
:1014A00005219954012315E07B681B681A687B6845
:1014B0001B6802218A431A607B682022012199540B
:1014C000002307E07B685B6A802252031A437B6833
:1014D0005A6201231800BD4604B080BD80B584B0B7
:1014E00000AF78600F203B187A682021525C1A7098
:1014F0000200BB181B78012B03D0BB181B78022BF2
:1015000009D17B681B681A687B681B6802210A4343
:101510001A60002307E07B685B6A8022D2021A43CC
:101520007B685A6201231800BD4604B080BD0000EC
:1015300080B586B000AF78600023FB60224B7B61F2
:1015400013203B187A682021525C1A700200BB18E5
:101550001B78012B03D0BB181B78022B28D17B688A
:101560001B681A687B681B6802218A431A60FB6843
:101570000133FB60FB687A699A429B415B42DBB2B4
:10158000002B08D07B685B6A802292021A437B683A
:101590005A62012314E07B681B685B6802221340D7
:1015A0005A1E9341DBB2002B00D0E0E7002307E096
:1015B0007B685B6A8022D2021A437B685A620123ED
:1015C0001800BD4606B080BD40420F0080B584B013
:1015D00000AF78600023FB600B203B187A68202165
:1015E000525C1A700200BB181B78012B03D0BB1889
:1015F0001B78022B0BD17B681B685B6802221340AF
:101600005A1E9341DBB2002B01D00123FB60FB6823
:101610001800BD4604B080BD80B588B000AFF8604A
:10162000B9607A603B601F203B18FA682021525C49
:101630001A70FB681B689B68BB613B181B78012B09
:1016400004D03B181B78022B00D0B7E0BA69802386
:10165000DB0413400AD1BA6980231B05134005D16E
:10166000BA6980235B05134000D19EE0BB691B0E65
:10167000032213407B617B69022B08D9FB685B6AFC
:10168000802212041A43FB685A6201239EE0012261
:101690007B699A403B681A60BB689B68002B0CD141
:1016A000BB681B685905BB68DA68FB681B68114397
:1016B0007A6918321201D1500FE0BB685B68DA001A
:1016C000BB689B681A431100BB68DA68FB681B683B
:1016D00011437A6918321201D150FB681968BB684E
:1016E0001A697B6918331B01CB1804331A60BB6875
:1016F0001B7D012B12D1FB681A687B6918331B0113
:10170000D31804331A68FB68196880235B001A43F6
:101710007B6918331B01CB1804331A607B680733CD
:101720001B781A067B6806331B781B041A437B68F8
:1017300005331B781B021A437B6804331B7819009E
:10174000FB6818680A437969C6235B0009014118E0
:10175000CB181A607B6803331B781A067B68023348
:101760001B781B041A437B6801331B781B021A4346
:101770007B681B781900FB6818680A437969C423E1
:101780005B0009014118CB181A60FB681B687A6975
:1017900018321201D258FB681B68012111437A6983
:1017A00018321201D150002310E0FB685B6A8022DE
:1017B00092031A43FB685A62012307E0FB685B6AE5
:1017C0008022D2021A43FB685A6201231800BD46E8
:1017D00008B080BD80B584B000AF786039600F205C
:1017E0003B187A682021525C1A700200BB181B78E3
:1017F000012B03D0BB181B78022B27D13B68012299
:10180000134007D07B681B689A687B681B6880213F
:101810000A439A603B680222134008D07B681B6829
:101820009A687B681B68802109020A439A603B68BA
:101830000422134008D07B681B689A687B681B6889
:10184000802109040A439A60002307E07B685B6AF1
:101850008022D2021A437B685A6201231800BD46D7
:1018600004B080BD80B584B000AF78600023FB6019
:101870000B203B187A682021525C1A700200BB18BA
:101880001B78012B03D0BB181B78022B29D17B6856
:101890001B689A688023DB0413405A1E9341DBB215
:1018A000002B02D0FB680133FB607B681B689A68E1
:1018B00080231B0513405A1E9341DBB2002B02D03C
:1018C000FB680133FB607B681B689A6880235B05BB
:1018D00013405A1E9341DBB2002B02D0FB68013348
:1018E000FB60FB681800BD4604B080BD80B584B0C5
:1018F00000AF786039600023FB600B203B187A68EA
:101900002021525C1A700200BB181B78012B03D0F7
:10191000BB181B78022B0FD17B681B689B683A6849
:1019200092061A403B689B06D31A5A1E9341DBB2BB
:10193000002B01D00123FB60FB681800BD4604B0FA
:1019400080BD80B586B000AF7860396000237B61D0
:101950000F203B187A682021525C1A700200BB18D5
:101960001B78012B03D0BB181B78022B19D13B68C5
:10197000012B02D100233B6107E03B68022B02D11F
:1019800001233B6101E002233B617B681A683B69EC
:1019900018331B01D31804331B681B0C1B041B0CCE
:1019A0007B617B691800BD4606B080BD80B586B0FE
:1019B00000AFF860B9607A603B6017203B18FA68A6
:1019C0002021525C1A700200BB181B78012B04D036
:1019D000BB181B78022B00D000E1BB68002B12D192
:1019E000FB681B68DB68032213405A425341DBB299
:1019F000002B1BD0FB685B6A802292031A43FB68B2
:101A00005A620123F2E0FB681B681B690322134042
:101A10005A425341DBB2002B08D0FB685B6A80223C
:101A200092031A43FB685A620123DFE0FB681B68DC
:101A3000BA681B321201D35804221A407B689A609C
:101A40007B689B68002B0BD1FB681B68BA681B3254
:101A50001201D3585B0D5B055A0D7B681A600AE0D2
:101A6000FB681B68BA681B321201D358DB08DB0025
:101A7000DA087B685A60FB681B68BA681B3212017F
:101A8000D35802221A407B68DA60FB681A68BB6888
:101A90001B331B01D31804331B680F221A407B68C9
:101AA0001A61FB681A68BB681B331B01D318043327
:101AB0001B681B0AFF221A407B689A61FB681A6840
:101AC000BB681B331B01D31804331B681B0C1B049E
:101AD0001A0C7B685A61FB681968BA68DC235B00E2
:101AE00012018A18D3181B68DAB23B681A70FB68B7
:101AF0001968BA68DC235B0012018A18D3181B68C6
:101B00001A0A3B680133D2B21A70FB681968BA68C6
:101B1000DC235B0012018A18D3181B681A0C3B687F
:101B20000233D2B21A70FB681968BA68DC235B0012
:101B300012018A18D3181B681A0E3B680333D2B2FD
:101B40001A70FB681968BA68DE235B0012018A18F4
:101B5000D3181A683B680433D2B21A70FB6819684C
:101B6000BA68DE235B0012018A18D3181B681A0AB0
:101B70003B680533D2B21A70FB681968BA68DE2375
:101B80005B0012018A18D3181B681A0C3B680633D5
:101B9000D2B21A70FB681968BA68DE235B001201C2
:101BA0008A18D3181B681A0E3B680733D2B21A7012
:101BB000BB68002B08D1FB681B68DA68FB681B68F0
:101BC00020210A43DA6007E0FB681B681A69FB689A
:101BD0001B6820210A431A61002307E0FB685B6A47
:101BE0008022D2021A43FB685A6201231800BD46C4
:101BF00006B080BD80B584B000AF78603960002346
:101C0000FB600B203B187A682021525C1A7002009E
:101C1000BB181B78012B03D0BB181B78022B0FD1EC
:101C20003B68002B06D17B681B68DB6803221340EE
:101C3000FB6005E07B681B681B6903221340FB60A7
:101C4000FB681800BD4604B080BD80B584B000AF0D
:101C5000786039600F203B187A682021525C1A7036
:101C60000200BB181B78012B03D0BB181B78022B7A
:101C700009D17B681B6859697B681B683A680A430D
:101C80005A61002307E07B685B6A8022D2021A4314
:101C90007B685A6201231800BD4604B080BD80B540
:101CA00084B000AF786039600F203B187A6820213B
:101CB000525C1A700200BB181B78012B03D0BB18B2
:101CC0001B78022B0AD17B681B685A693B68D94391
:101CD0007B681B680A405A61002307E07B685B6AE7
:101CE0008022D2021A437B685A6201231800BD4643
:101CF00004B080BD80B58AB000AF786000237B62FD
:101D00007B681B685B693B627B681B685B68FB6187
:101D10007B681B689B68BB617B681B68DB687B61B9
:101D20007B681B681B693B617B681B689B69FB6068
:101D30003B6A0122134000D184E0BB6901221340B9
:101D400024D07B681B6801229A60BB690222134081
:101D500004D07B68180000F089F917E0BB69042201
:101D6000134005D07B6A8022120113437B620DE091
:101D7000BB690822134005D07B6A802252011343BD
:101D80007B6203E07B68180000F088F9BA69802361
:101D90005B00134028D07B681B68802252009A6049
:101DA000BA6980239B00134004D07B68180000F0C0
:101DB00065F919E0BA698023DB00134005D07B6A1E
:101DC0008022920113437B620EE0BA6980231B01DB
:101DD000134005D07B6A8022D20113437B6203E06B
:101DE0007B68180000F062F9BA6980235B02134037
:101DF00028D07B681B68802252029A60BA698023CF
:101E00009B02134004D07B68180000F03FF919E0F2
:101E1000BA698023DB02134005D07B6A802212025C
:101E200013437B620EE0BA6980231B03134005D085
:101E30007B6A8022520213437B6203E07B681800B6
:101E400000F03CF93B6A082213400CD07B69102259
:101E5000134008D07B6A8022920013437B627B6828
:101E60001B681022DA603B6A042213400BD07B69A6
:101E70000822134007D07B681B680822DA607B6861
:101E8000180000F02BF93B6A022213400DD07B684A
:101E90001B68DB68032213405A1E9341DBB2002B00
:101EA00003D07B681800FEF775FA3B6A40221340A6
:101EB0000CD03B691022134008D07B6A8022D200EC
:101EC00013437B627B681B6810221A613B6A2022E5
:101ED00013400BD03B690822134007D07B681B6876
:101EE00008221A617B68180000F008F93B6A10228A
:101EF00013400DD07B681B681B69032213405A1ED8
:101F00009341DBB2002B03D07B68180000F0EEF8A1
:101F10003A6A80239B0213400BD0FB6910221340C6
:101F200007D07B681B6810225A607B68180000F09D
:101F3000EDF83A6A80235B0213400BD0FB6908225C
:101F4000134007D07B681B6808225A607B68180022
:101F500000F0E4F83A6A80231B02134000D174E0D9
:101F6000FB690422134000D16BE03A6A80235B00D6
:101F7000134007D0FB680122134003D07B6A012283
:101F800013437B623A6A80239B00134007D0FB68AF
:101F90000222134003D07B6A022213437B623A6A17
:101FA0008023DB00134007D0FB680422134003D0DA
:101FB0007B6A042213437B623A6A80231B0113402D
:101FC0003FD0FB68702213403BD0FB687022134067
:101FD000602B27D02CD8502B1FD029D8402B17D0BE
:101FE00026D8302B0FD023D8102B02D0202B05D091
:101FF0001EE07B6A082213437B621AE07B6A102290
:1020000013437B6215E07B6A202213437B6210E05E
:102010007B6A402213437B620BE07B6A802213437E
:102020007B6206E07B6A8022520013437B6200E001
:10203000C0467B681B689A697B681B6870218A436D
:102040009A617B681B6804225A607B6A002B09D066
:102050007B685A6A7B6A1A437B685A627B681800FD
:10206000FEF7BAF9C046BD460AB080BD80B582B061
:1020700000AF7860C046BD4602B080BD80B582B07A
:1020800000AF7860C046BD4602B080BD80B582B06A
:1020900000AF7860C046BD4602B080BD80B582B05A
:1020A00000AF7860C046BD4602B080BD80B582B04A
:1020B00000AF7860C046BD4602B080BD80B582B03A
:1020C00000AF7860C046BD4602B080BD80B582B02A
:1020D00000AF7860C046BD4602B080BD80B582B01A
:1020E00000AF7860C046BD4602B080BD80B582B00A
:1020F00000AF7860C046BD4602B080BD80B582B0FA
:1021000000AF7860C046BD4602B080BD80B582B0E9
:1021100000AF7860C046BD4602B080BD80B582B0D9
:1021200000AF7860C046BD4602B080BD80B582B0C9
:1021300000AF7860C046BD4602B080BD80B584B0B7
:1021400000AF78600F203B187A682021525C1A702B
:102150000200BB181B78012B03D0BB181B78022B85
:102160001CD17B681B685B68022213405A1E934196
:10217000DBB2002B04D00F23FB1804221A700DE0F1
:102180007B681B681B68022213405A1E9341DBB216
:10219000002B03D00F23FB1803221A700F23FB1808
:1021A0001B781800BD4604B080BD80B582B000AF7A
:1021B00078607B685B6A1800BD4602B080BD80B560
:1021C00084B000AF78600F23FB1800221A700E2035
:1021D0003B187A682021525C1A700200BB181B78E9
:1021E000012B03D0BB181B78022B03D17B68002284
:1021F0005A620AE07B685B6A8022D2021A437B68DB
:102200005A620F23FB1801221A700F23FB181B7848
:102210001800BD4604B080BD80B582B000AF02009A
:10222000FB1D1A70FB1D1B787F2B09D8FB1D1B782B
:102230001A001F231A40044B012191400A001A6022
:10224000C046BD4602B080BD00E100E080B582B06E
:1022500000AF0200FB1D1A70FB1D1B787F2B10D8EE
:10226000FB1D1B781A001F231340084901229A40C6
:10227000130080228B50BFF34F8FC046BFF36F8F88
:10228000C046C046BD4602B080BDC04600E100E089
:1022900080B582B000AF0200FB1D1A70FB1D1B78D9
:1022A0007F2B0DD8094A80235B00D258FB1D1B7879
:1022B00019001F230B40DA4013000122134000E0F5
:1022C00000231800BD4602B080BDC04600E100E01A
:1022D00080B582B000AF0200FB1D1A70FB1D1B7899
:1022E0007F2B0AD8FB1D1B781A001F2313400549BA
:1022F00001229A4080235B00CA50C046BD4602B00E
:1023000080BDC04600E100E080B582B000AF0200B1
:10231000FB1D1A70FB1D1B787F2B0AD8FB1D1B7839
:102320001A001F231340054901229A40C0235B0075
:10233000CA50C046BD4602B080BDC04600E100E0C4
:1023400090B583B000AF02003960FB1D1A70FB1D11
:102350001B787F2B28D82F4AFB1D1B785BB29B086C
:10236000C0339B009B58FA1D127852B203210A40D9
:10237000D200FF2191400A00D2431A4011003B686D
:102380009B01FF221A40FB1D1B785BB20320034018
:10239000DB009A401F48FB1D1B785BB29B080A4379
:1023A000C0339B001A5031E01B4AFB1D1B785BB207
:1023B0000F210B40083B9B0806339B00D3180433C6
:1023C0001B68FA1D127852B203210A40D200FF2185
:1023D00091400A00D2431A4011003B689B01FF2242
:1023E0001A40FB1D1B785BB203200340DB009A40C0
:1023F0000948FB1D1B785BB20F242340083B9B0858
:102400000A4306339B00C31804331A60C046BD4616
:1024100003B090BD00E100E000ED00E080B582B0C7
:1024200000AF0200FB1D1A70FB1D1B787F2B13D819
:10243000174AFB1D1B785BB29B08C0339B009A5860
:10244000FB1D1B785BB203210B40DB00DA4013005D
:102450009B090322134017E00E4AFB1D1B785BB259
:102460000F210B40083B9B0806339B00D318043315
:102470001A68FB1D1B785BB203210B40DB00DA40BE
:1024800013009B09032213401800BD4602B080BD13
:1024900000E100E000ED00E080B500AFBFF34F8F3A
:1024A000C046044B044ADA60BFF34F8FC046C046B3
:1024B000FDE7C04600ED00E00400FA0580B582B0FB
:1024C00000AF78607B685A1E80235B049A4201D378
:1024D000012310E00A4B7A68013A5A6001235B42FB
:1024E00003211800FFF72CFF054B00229A60044BD4
:1024F00007221A6000231800BD4602B080BDC04606
:1025000010E000E080B584B000AFB9607A600F21C0
:102510007B18021C1A70BA687B181B785BB211001A
:102520001800FFF70DFFC046BD4604B080BD80B562
:1025300082B000AF0200FB1D1A70FB1D1B785BB25E
:102540001800FFF769FEC046BD4602B080BD80B5E9
:1025500082B000AF0200FB1D1A70FB1D1B785BB23E
:102560001800FFF773FEC046BD4602B080BD80B5BF
:1025700000AFFFF791FF80B582B000AF78607B6855
:102580001800FFF79BFF03001800BD4602B080BD96
:1025900080B582B000AF0200FB1D1A70FB1D1B78D6
:1025A0005BB21800FFF73AFF03001800BD4602B007
:1025B00080BD80B582B000AF0200FB1D1A70FB1D0C
:1025C0001B785BB21800FFF783FEC046BD4602B021
:1025D00080BD80B582B000AF0200FB1D1A70FB1DEC
:1025E0001B785BB21800FFF753FE03001800BD46CE
:1025F00002B080BD80B582B000AF0200FB1D1A7032
:10260000FB1D1B785BB21800FFF77EFEC046BD467F
:1026100002B080BD80B582B000AF78607B68042BCB
:1026200006D1084B1A68074B04210A431A6005E0DB
:10263000044B1A68034B04218A431A60C046BD4606
:1026400002B080BD10E000E080B500AF00F003F8FC
:10265000C046BD4680BD80B500AFC046BD4680BD0A
:1026600080B586B000AF7860396000237B613B683D
:102670001A687B69DA40131E00D14AE13B681B6887
:1026800001217A6991400A001340FB60FB68002B2E
:1026900000D13AE13B685B68012B0BD03B685B687B
:1026A000022B07D03B685B68112B03D03B685B684B
:1026B000122B30D17B689B683B617B695B000322F6
:1026C0009A401300DA433B6913403B613B68DA6888
:1026D0007B695B009A4013003A6913433B617B6856
:1026E0003A699A607B685B683B6101227B699A402A
:1026F0001300DA433B6913403B613B685B681B098D
:1027000001221A407B699A4013003A6913433B61E6
:102710007B683A695A607B68DB683B617B695B0078
:1027200003229A401300DA433B6913403B613B6844
:102730009A687B695B009A4013003A6913433B61D6
:102740007B683A69DA603B685B68022B03D03B68C0
:102750005B68122B23D17B69DA087B680832920010
:10276000D3583B617B69072213409B000F229A409C
:102770001300DA433B6913403B613B681A697B698C
:1027800007210B409B009A4013003A6913433B61B9
:102790007B69DA087B68083292003969D1507B681E
:1027A0001B683B617B695B0003229A401300DA439C
:1027B0003B6913403B613B685B6803221A407B69BD
:1027C0005B009A4013003A6913433B617B683A69A6
:1027D0001A603B685A6880235B05134000D194E07F
:1027E0004E4B9A694D4B01210A439A614B4B9B69B1
:1027F00001221340BB60BB68494A7B699B080233D6
:102800009B009B583B617B69032213409B000F2276
:102810009A401300DA433B6913403B617A68902386
:10282000DB059A420DD07B683E4A934207D07B6815
:102830003D4A934201D1022304E0052302E0012333
:1028400000E000237A6903210A40920093403A692C
:1028500013433B6132497B699B0802339B003A6911
:102860005A50324B1B683B61FB68DA433B691340AB
:102870003B613B685A6880235B02134003D03A698E
:10288000FB6813433B61294B3A691A60274B5B682D
:102890003B61FB68DA433B6913403B613B685A6824
:1028A00080239B02134003D03A69FB6813433B61CA
:1028B0001E4B3A695A601D4B9B683B61FB68DA43CB
:1028C0003B6913403B613B685A6880235B031340BC
:1028D00003D03A69FB6813433B61144B3A699A6031
:1028E000124BDB683B61FB68DA433B6913403B6199
:1028F0003B685A6880239B03134003D03A69FB6806
:1029000013433B61094B3A69DA607B6901337B61B0
:10291000ADE6C046BD4606B080BDC04600100240D0
:102920000000014000040048000800480004014085
:1029300080B586B000AF7860396000237B613A686B
:102940007B69DA40131E00D1ACE001227B699A401A
:102950003B6813403B613B69002B00D19EE0534A2A
:102960007B699B0802339B009B58FB607B690322B9
:1029700013409B000F229A40FB681340FB607A686B
:102980009023DB059A420DD07B68494A934207D0D9
:102990007B68484A934201D1022304E0052302E008
:1029A000012300E000237A6903210A40920093404A
:1029B000FA689A4232D1404B1A683B69D9433E4B80
:1029C0000A401A603C4B5A683B69D9433A4B0A406B
:1029D0005A60394B9A683B69D943374B0A409A6031
:1029E000354BDA683B69D943334B0A40DA607B697F
:1029F000032213409B000F229A401300FB602B4AD6
:102A00007B699B0802339B009A58FB68D94327488F
:102A10007B699B080A4002339B001A507B681B6845
:102A20007A695200032191400A00D2431A407B6820
:102A30001A607B69DA087B6808329200D3587A6999
:102A400007210A4092000F2191400A00D1437A6980
:102A5000D20819407B6808329200D1507B68DB684D
:102A60007A695200032191400A00D2431A407B68E0
:102A7000DA607B685B6801217A6991400A00D24381
:102A80001A407B685A607B689B687A695200032110
:102A900091400A00D2431A407B689A607B690133F7
:102AA0007B614CE7C046BD4606B080BD00000140DA
:102AB00000040048000800480004014080B584B0CC
:102AC00000AF78600A00BB1C1A807B681B69BA1CC7
:102AD000128813405A1E9341DBB2002B04D00F23FF
:102AE000FB1801221A7003E00F23FB1800221A7052
:102AF0000F23FB181B781800BD4604B080BD80B5BD
:102B000082B000AF786008001100BB1C021C1A8064
:102B10007B1C0A1C1A707B1C1B78002B04D0BB1C6E
:102B20001A887B689A6103E0BB1C1A887B689A62EA
:102B3000C046BD4602B080BD80B584B000AF7860AD
:102B40000A00BB1C1A807B685B69FB60BB1C1B888E
:102B5000FA6813401A04FB68DB43B91C09880B4070
:102B60001A437B689A61C046BD4604B080BD80B5FB
:102B700084B000AF78600A00BB1C1A8080235B021F
:102B8000FB60FA68BB1C1B881343FB60FA687B6818
:102B9000DA61BB1C1A887B68DA61FA687B68DA61E3
:102BA0007B68DB69FB607B68DA6980235B0213402A
:102BB0005A1E9341DBB2002B01D0002300E0012319
:102BC0001800BD4604B080BD80B582B000AF0200E1
:102BD000BB1D1A800B4B5B69BA1D128813405A1E2D
:102BE0009341DBB2002B08D0064BBA1D12885A6104
:102BF000BB1D1B88180000F007F8C046BD4602B098
:102C000080BDC0460004014080B582B000AF020024
:102C1000BB1D1A80C046BD4602B080BD80B582B0E3
:102C200000AFFEF76FF803007B60454B1A68444B1A
:102C300081210A431A60424B1B68022213405A4208
:102C40005341DBB2002B0DD0FEF75CF802007B682D
:102C5000D31A02229A429B415B42DBB2002BEAD09C
:102C6000032368E0364B5A68354B36490A405A60B0
:102C7000334B5B680C2213405A1E9341DBB2002B8E
:102C80000DD0FEF73FF802007B68D31A2E4A9A4215
:102C90009B415B42DBB2002BEAD003234BE02B4B82
:102CA0002B4A1A602B4B1B681800FDF7E1FF03004D
:102CB0005A1E9341DBB2002B01D001233BE0204B95
:102CC0001A681F4B24490A401A601D4B1A681C4B96
:102CD00022490A401A60FEF715F803007B60184B82
:102CE0001A6880239B0413405A1E9341DBB2002BC9
:102CF0000DD0FEF707F802007B68D31A02229A4231
:102D00009B415B42DBB2002BE9D0032313E00C4B69
:102D100000225A600A4B0022DA62094B00221A6331
:102D2000074B00229A60064B5A6A054B80214904E2
:102D30000A435A6200231800BD4602B080BDC04657
:102D4000001002400CF8FFF088130000000400207F
:102D500000127A0004040020FFFFF6FEFFFFFBFFD5
:102D600080B588B000AF78607B68002B02D101236A
:102D700000F010FC7B681B680122134000D1A6E024
:102D8000BF4B5B680C221340042B0ED0BC4B5B681E
:102D90000C221340082B0AD1B94B5A68C0235B029E
:102DA0001A4080235B029A4201D1012300E00023F4
:102DB000002B12D0B24B1A6880239B02134005D01F
:102DC0007B685B68002B01D1012300E00023002B0E
:102DD00000D17CE0012300F0DDFB7B685B68012B08
:102DE00007D1A74B1A68A64B802149020A431A60F3
:102DF0002FE07B685B68002B0CD1A14B1A68A04BBD
:102E0000A0490A401A609E4B1A689D4B9E490A4091
:102E10001A601EE07B685B68052B0ED1984B1A6820
:102E2000974B8021C9020A431A60954B1A68944B4C
:102E3000802149020A431A600BE0914B1A68904BBB
:102E400090490A401A608E4B1A688D4B8E490A4091
:102E50001A607B685B68002B1CD0FDF753FF0300F2
:102E6000BB61874B1A6880239B0213405A4253412F
:102E7000DBB2002B2BD0FDF745FF0200BB69D31A54
:102E800064229A429B415B42DBB2002BE9D00323D0
:102E900000F080FBFDF736FF0300BB61784B1A683A
:102EA00080239B0213405A1E9341DBB2002B0ED0AD
:102EB000FDF728FF0200BB69D31A64229A429B41A6
:102EC0005B42DBB2002BE9D0032300F063FB7B689D
:102ED0001B680222134000D186E0694B5B680C221C
:102EE00013400ED0664B5B680C221340082B0AD1AE
:102EF000634B5A68C0235B021A4080231B029A422C
:102F000001D1012300E00023002B1BD05C4B1B6888
:102F10000222134005D07B68DB68012B01D001231E
:102F200000E00023002B01D0012333E3544B1B6846
:102F3000F822934319007B681B69DA00504B0A435F
:102F40001A6051E07B68DB68002B2CD04C4B1A6870
:102F50004B4B01210A431A60FDF7D4FE0300BB610D
:102F6000474B1B68022213405A425341DBB2002BED
:102F70000DD0FDF7C7FE0200BB69D31A02229A42A8
:102F80009B415B42DBB2002BEAD0032302E33C4BC4
:102F90001B68F822934319007B681B69DA00384BE1
:102FA0000A431A6020E0364B1A68354B01218A43E8
:102FB0001A60FDF7A7FE0300BB61314B1B680222BC
:102FC00013405A1E9341DBB2002B0DD0FDF79AFE41
:102FD0000200BB69D31A02229A429B415B42DBB2D8
:102FE000002BEAD00323D5E27B681B68082213403C
:102FF0004CD07B68DB69002B20D0214B5A6A204BD8
:1030000001210A435A62FDF77DFE0300BB611C4BA0
:103010005B6A022213405A425341DBB2002B35D087
:10302000FDF770FE0200BB69D31A02229A429B414F
:103030005B42DBB2002BEAD00323ABE2104B5A6AAF
:103040000F4B01218A435A62FDF75CFE0300BB610E
:103050000B4B5B6A022213405A1E9341DBB2002BDA
:1030600014D0FDF74FFE0200BB69D31A02229A4228
:103070009B415B42DBB2002BEAD003238AE2C046CD
:1030800000100240FFFFFEFFFFFFFBFF7B681B6895
:103090000422134000D1C9E01F203B1800221A70FF
:1030A000CB4BDA6980235B0513405A425341DBB2B4
:1030B000002B10D0C64BDA69C54B802149050A4365
:1030C000DA61C34BDA6980235B051340FB60FB6860
:1030D0003B1801221A70BF4B1A6880235B00134013
:1030E0005A425341DBB2002B22D0BA4B1A68B94B7B
:1030F000802149000A431A60FDF704FE0300BB610A
:10310000B44B1A6880235B0013405A425341DBB230
:10311000002B0DD0FDF7F6FD0200BB69D31A642227
:103120009A429B415B42DBB2002BE9D0032331E2A0
:103130007B689B68012B06D1A54B1A6AA44B012121
:103140000A431A622DE07B689B68002B0CD1A04BD0
:103150001A6A9F4B01218A431A629D4B1A6A9C4B43
:1031600004218A431A621CE07B689B68052B0CD102
:10317000974B1A6A964B04210A431A62944B1A6AB7
:10318000934B01210A431A620BE0914B1A6A904B50
:1031900001218A431A628E4B1A6A8D4B04218A439D
:1031A0001A627B689B68002B1AD0FDF7ABFD030009
:1031B000BB61874B1B6A022213405A425341DBB268
:1031C000002B28D0FDF79EFD0200BB69D31A824A6E
:1031D0009A429B415B42DBB2002BEAD00323D9E148
:1031E000FDF790FD0300BB61794B1B6A022213407F
:1031F0005A1E9341DBB2002B0DD0FDF783FD020078
:10320000BB69D31A744A9A429B415B42DBB2002BE2
:10321000EAD00323BEE11F23FB181B78012B05D145
:103220006B4BDA696A4B6D490A40DA617B681B684F
:103230001022134000D173E07B685B69012B32D10F
:10324000634B5A6B624B04210A435A63604B5A6BBF
:103250005F4B01210A435A63FDF754FD0300BB6134
:103260005B4B5B6B022213405A425341DBB2002B93
:103270000DD0FDF747FD0200BB69D31A02229A4226
:103280009B415B42DBB2002BEAD0032382E1504B2F
:103290005B6BF822934319007B689B69DA004C4B07
:1032A0000A435A633CE07B685B69053311D1484BA4
:1032B0005A6B474B04218A435A63454B5B6BF82298
:1032C000934319007B689B69DA00414B0A435A63B8
:1032D00026E03F4B5A6B3E4B04210A435A633C4B5A
:1032E0005A6B3B4B01218A435A63FDF70BFD0300E8
:1032F000BB61374B5B6B022213405A1E9341DBB21A
:10330000002B0DD0FDF7FEFC0200BB69D31A022290
:103310009A429B415B42DBB2002BEAD0032339E1A6
:103320007B681B682022134000D17BE0284B5B6840
:103330000C2213400C2B0ED0254B5B680C22134043
:10334000082B0AD1224B5A68C0235B021A40C023C3
:103350005B029A4201D1012300E00023002B10D030
:103360001B4B5A6B80235B02134005D07B681B6AA2
:10337000012B01D0012300E00023002B52D00123B8
:1033800008E17B681B6A002B2AD0114B5A6B104B4B
:10339000802149020A435A63FDF7B4FC0300BB6174
:1033A0000B4B5A6B80235B0213405A425341DBB2F2
:1033B000002B37D0FDF7A6FC0200BB69D31A02220E
:1033C0009A429B415B42DBB2002BE9D00323E1E050
:1033D000001002400070004088130000FFFFFFEF64
:1033E0006E4B5A6B6D4B6E490A405A63FDF78AFC6F
:1033F0000300BB61694B5A6B80235B0213405A1E6A
:103400009341DBB2002B0DD0FDF77CFC0200BB69C1
:10341000D31A02229A429B415B42DBB2002BE9D0D5
:103420000323B7E07B685B6A002B00D1B1E05B4B04
:103430005B680C221340083B5A1E9341DBB2002B01
:1034400000D181E07B685B6A022B5BD1534B1A6829
:10345000524B54490A401A60FDF754FC0300BB610B
:103460004E4B1A6880239B0413405A1E9341DBB2D3
:10347000002B0DD0FDF746FC0200BB69D31A0222D7
:103480009A429B415B42DBB2002BE9D0032381E0EF
:10349000424BDB6A0F22934319007B681A6B3F4B48
:1034A0000A43DA623D4B5B683F4A134019007B6870
:1034B000DA6A7B689B6A1A43384B0A435A60374B77
:1034C0001A68364B802149040A431A60FDF71AFC3A
:1034D0000300BB61314B1A6880239B0413405A429E
:1034E0005341DBB2002B54D0FDF70CFC0200BB694A
:1034F000D31A02229A429B415B42DBB2002BE9D0F5
:10350000032347E0254B1A68244B26490A401A60DA
:10351000FDF7F8FB0300BB61204B1A6880239B0476
:1035200013405A1E9341DBB2002B32D0FDF7EAFB69
:103530000200BB69D31A02229A429B415B42DBB272
:10354000002BE9D0032325E07B685B6A012B01D1C6
:1035500001231FE0114B5B687B61104BDB6A3B6111
:103560007A69C0235B021A407B689B6A9A420ED13B
:103570003B690F221A407B681B6B9A4207D17A691C
:10358000F0239B031A407B68DB6A9A4201D0012337
:1035900000E000231800BD4608B080BD00100240C6
:1035A000FFFFFEFFFFFFFFFEFF7FC2FF80B584B07D
:1035B00000AF786039607B68002B01D10123E6E021
:1035C000754B1B6801221A403B689A429B415B4243
:1035D000DBB2002B15D0704B1B68012293431900FE
:1035E0006D4B3A680A431A606B4B1B68012213400B
:1035F0003A68D31A5A1E9341DBB2002B01D0012343
:10360000C5E07B681B680222134015D07B681B68ED
:103610000422134006D0614B5A68604BE021C90078
:103620000A435A605D4B5B68F022934319007B6844
:103630009A685A4B0A435A607B681B680122134000
:1036400063D07B685B68012B0BD1544B1A688023D5
:103650009B0213405A425341DBB2002B2CD0012372
:1036600095E07B685B68022B0BD14C4B1A6880237A
:103670009B0413405A425341DBB2002B1CD0012360
:1036800085E07B685B68032B0BD1444B5A6B80232E
:103690005B0213405A425341DBB2002B0CD0012392
:1036A00075E03E4B1B68022213405A425341DBB285
:1036B000002B01D001236AE0384B5B68032293435F
:1036C00019007B685A68354B0A435A60FDF71AFBAC
:1036D0000300FB60314B5B680C221A407B685B681F
:1036E0009B00D31A5A1E9341DBB2002B0DD0FDF77D
:1036F00009FB0200FB68D31A294A9A429B415B42AC
:10370000DBB2002BE6D0032341E0234B1B680122F0
:1037100013403A689A429B415B42DBB2002B15D0C2
:103720001D4B1B680122934319001B4B3A680A4347
:103730001A60194B1B68012213403A68D31A5A1EAB
:103740009341DBB2002B01D0012320E07B681B6892
:103750000422134009D0114B5B68124A1340190030
:103760007B68DA680D4B0A435A6000F07FF801006D
:103770000A4B5B681B090F2213400B4AD35C0A00FB
:10378000DA400A4B1A600020FDF772FA0023180095
:10379000BD4604B080BDC04600200240001002407B
:1037A00088130000FFF8FFFFE03B00080004002042
:1037B00080B58AB000AFF860B9607A6014203B1819
:1037C00002225A603B180322DA603B1800229A60FA
:1037D0003B18802252001A603B1800221A61124BDB
:1037E0005A69114B802189020A435A610E4B5A696A
:1037F00080239B0213403B613B693A189023DB0511
:1038000011001800FEF72CFF074B5B68074A1340B6
:103810001900BA687B681A43034B0A435A60C046D2
:10382000BD460AB080BDC04600100240FFFFFF80C9
:1038300080B500AF044B1A68034B802109030A438B
:103840001A60C046BD4680BD0010024080B500AF82
:10385000044B1A68034B04490A401A60C046BD462F
:1038600080BDC04600100240FFFFF7FF90B58FB04B
:1038700000AF1423FB18384A13CA13C312681A6026
:103880003B1D364A13CA13C312681A600023FB6239
:103890000023BB6200237B6300237B6200233B6326
:1038A0002F4B5B68FB62FB6A0C2213400C2B47D04A
:1038B00049D8042B02D0082B03D044E0294B3B63AA
:1038C00044E0FB6A9B0C0F2213401422BA18D35C0D
:1038D0007B62234BDB6A0F2213403A1DD35CBB6231
:1038E000FA6AC0235B021A4080235B029A4209D124
:1038F000B96A1C48FCF738FC03001A007B6A534382
:103900007B631AE0FA6AC0235B021A40C0235B02A1
:103910009A4209D1B96A1448FCF726FC03001A0040
:103920007B6A53437B6308E0B96A0E48FCF71CFCD2
:1039300003001A007B6A53437B637B6B3B6305E0A8
:10394000094B3B6302E0074B3B63C0463B6B1800EF
:10395000BD460FB090BDC046F83B0008083C0008CB
:103960000010024000127A00006CDC0280B500AF4B
:10397000024B1B681800BD4680BDC04600040020F5
:1039800080B500AFFFF7F2FF0100064B5B681B0A32
:1039900007221340044AD35CD9400B001800BD46EF
:1039A00080BDC04600100240F03B000880B582B0E8
:1039B00000AF78607B681F221A607B681B6820223A
:1039C0001A437B681A605E4B1A688023DB0213403F
:1039D0005C4A944663445A425341DBB2002B03D005
:1039E0007B6805225A6013E0554B1A6880235B02FE
:1039F0001340554A944663445A425341DBB2002B6C
:103A000003D07B6801225A6002E07B6800225A6082
:103A10004B4B1B6801221340013B5A425341DBB21E
:103A2000002B03D07B680122DA6002E07B68002271
:103A3000DA60434B1B68DB081F221A407B681A615F
:103A40003F4B1B6A04221340043B5A425341DBB2F2
:103A5000002B03D07B6805229A6010E0384B1B6A6C
:103A600001221340013B5A425341DBB2002B03D0E9
:103A70007B6801229A6002E07B6800229A60304BEA
:103A80005B6A01221340013B5A425341DBB2002BD7
:103A900003D07B680122DA6102E07B680022DA61F0
:103AA000274B5B6B01221340013B5A425341DBB26F
:103AB000002B03D07B6801225A6102E07B68002260
:103AC0005A611F4B5B6BDB081F221A407B689A61AF
:103AD0001B4B5A6B80235B02134001D0012200E094
:103AE00000227B681A62164B1A6880235B0413401D
:103AF000FF221206944663445A425341DBB2002B24
:103B000003D07B6802225A6202E07B6801225A627B
:103B10000B4B5A68C0235B021A407B689A62084BC1
:103B20005A68F0239B031A407B68DA62044BDB6A15
:103B30000F221A407B681A63C046BD4602B080BDA2
:103B4000001002400000FCFF0000FFFF80B582B0C3
:103B500000AF786039607B6807221A600E4B5B68A3
:103B600003221A407B685A600B4B5B68F0221A40B4
:103B70007B689A60084B5A68E023DB001A407B6838
:103B8000DA60064B1B6801221A403B681A60C04687
:103B9000BD4602B080BDC046001002400020024079
:103BA00080B500AF084B9B6880221340803B5A428F
:103BB0005341DBB2002B04D000F00AF8034B802203
:103BC0001A70C046BD4680BD001002400A10024077
:0C3BD00080B500AFC046BD4680BD0000BF
:103BDC0045727200000000000000000001020304A6
:103BEC000607080900000000010203040203040593
:103BFC00060708090A0B0C0D0E0F10100102030426
:0C3C0C0005060708090A0B0C0D0E0F102E
:0C3C180000127A0004000000010000000F
:043C2400FD06000891
:04000005080000C02F
:00000001FF
